{
  "contractName": "Auction",
  "abi": [
    {
      "constant": true,
      "inputs": [
        {
          "name": "",
          "type": "address"
        },
        {
          "name": "",
          "type": "uint256"
        }
      ],
      "name": "biddersPrice",
      "outputs": [
        {
          "name": "",
          "type": "uint256"
        }
      ],
      "payable": false,
      "stateMutability": "view",
      "type": "function"
    },
    {
      "constant": true,
      "inputs": [
        {
          "name": "",
          "type": "uint256"
        },
        {
          "name": "",
          "type": "uint256"
        }
      ],
      "name": "bidders",
      "outputs": [
        {
          "name": "",
          "type": "address"
        }
      ],
      "payable": false,
      "stateMutability": "view",
      "type": "function"
    },
    {
      "inputs": [],
      "payable": false,
      "stateMutability": "nonpayable",
      "type": "constructor"
    },
    {
      "constant": false,
      "inputs": [
        {
          "name": "_startTime",
          "type": "uint256"
        },
        {
          "name": "_auctionTime",
          "type": "uint256"
        },
        {
          "name": "_startingPrice",
          "type": "uint256"
        },
        {
          "name": "_fixedPrice",
          "type": "uint256"
        },
        {
          "name": "_name",
          "type": "string"
        },
        {
          "name": "_classification",
          "type": "string"
        },
        {
          "name": "_imageHash",
          "type": "string"
        },
        {
          "name": "_description",
          "type": "string"
        }
      ],
      "name": "addProduct",
      "outputs": [],
      "payable": false,
      "stateMutability": "nonpayable",
      "type": "function"
    },
    {
      "constant": false,
      "inputs": [
        {
          "name": "_productID",
          "type": "uint256"
        }
      ],
      "name": "bidProduct",
      "outputs": [
        {
          "name": "",
          "type": "bool"
        }
      ],
      "payable": true,
      "stateMutability": "payable",
      "type": "function"
    },
    {
      "constant": false,
      "inputs": [
        {
          "name": "_productID",
          "type": "uint256"
        }
      ],
      "name": "fixedBuyProduct",
      "outputs": [
        {
          "name": "",
          "type": "bool"
        }
      ],
      "payable": true,
      "stateMutability": "payable",
      "type": "function"
    },
    {
      "constant": false,
      "inputs": [
        {
          "name": "_productID",
          "type": "uint256"
        }
      ],
      "name": "endAuction",
      "outputs": [],
      "payable": false,
      "stateMutability": "nonpayable",
      "type": "function"
    },
    {
      "constant": true,
      "inputs": [
        {
          "name": "_productID",
          "type": "uint256"
        }
      ],
      "name": "getProduct",
      "outputs": [
        {
          "name": "",
          "type": "uint256"
        },
        {
          "name": "",
          "type": "uint256"
        },
        {
          "name": "",
          "type": "string"
        },
        {
          "name": "",
          "type": "string"
        },
        {
          "name": "",
          "type": "string"
        },
        {
          "name": "",
          "type": "uint8"
        }
      ],
      "payable": false,
      "stateMutability": "view",
      "type": "function"
    },
    {
      "constant": true,
      "inputs": [
        {
          "name": "_productID",
          "type": "uint256"
        }
      ],
      "name": "getBuyer",
      "outputs": [
        {
          "name": "",
          "type": "address"
        }
      ],
      "payable": false,
      "stateMutability": "view",
      "type": "function"
    },
    {
      "constant": true,
      "inputs": [
        {
          "name": "_productID",
          "type": "uint256"
        }
      ],
      "name": "belongToWho",
      "outputs": [
        {
          "name": "",
          "type": "address"
        }
      ],
      "payable": false,
      "stateMutability": "view",
      "type": "function"
    },
    {
      "constant": true,
      "inputs": [],
      "name": "getProductNum",
      "outputs": [
        {
          "name": "",
          "type": "uint256"
        }
      ],
      "payable": false,
      "stateMutability": "view",
      "type": "function"
    }
  ],
  "bytecode": "0x608060405234801561001057600080fd5b506000808190555061245c806100276000396000f3006080604052600436106100a4576000357c0100000000000000000000000000000000000000000000000000000000900463ffffffff1680633d06c61d146100a95780635bf608b81461020c5780636a7c0a901461027957806373bc0691146102a4578063a61a99d1146102dc578063b15f1a8614610314578063b9a2de3a14610375578063b9db15b4146103a2578063d1c1120514610543578063f44890c8146105ba575b600080fd5b3480156100b557600080fd5b5061020a60048036038101908080359060200190929190803590602001909291908035906020019092919080359060200190929190803590602001908201803590602001908080601f0160208091040260200160405190810160405280939291908181526020018383808284378201915050505050509192919290803590602001908201803590602001908080601f0160208091040260200160405190810160405280939291908181526020018383808284378201915050505050509192919290803590602001908201803590602001908080601f0160208091040260200160405190810160405280939291908181526020018383808284378201915050505050509192919290803590602001908201803590602001908080601f0160208091040260200160405190810160405280939291908181526020018383808284378201915050505050509192919290505050610627565b005b34801561021857600080fd5b5061023760048036038101908080359060200190929190505050610877565b604051808273ffffffffffffffffffffffffffffffffffffffff1673ffffffffffffffffffffffffffffffffffffffff16815260200191505060405180910390f35b34801561028557600080fd5b5061028e610c58565b6040518082815260200191505060405180910390f35b6102c260048036038101908080359060200190929190505050610c61565b604051808215151515815260200191505060405180910390f35b6102fa60048036038101908080359060200190929190505050611003565b604051808215151515815260200191505060405180910390f35b34801561032057600080fd5b5061035f600480360381019080803573ffffffffffffffffffffffffffffffffffffffff16906020019092919080359060200190929190505050611273565b6040518082815260200191505060405180910390f35b34801561038157600080fd5b506103a060048036038101908080359060200190929190505050611298565b005b3480156103ae57600080fd5b506103cd60048036038101908080359060200190929190505050611aa6565b604051808781526020018681526020018060200180602001806020018560028111156103f557fe5b60ff168152602001848103845288818151815260200191508051906020019080838360005b8381101561043557808201518184015260208101905061041a565b50505050905090810190601f1680156104625780820380516001836020036101000a031916815260200191505b50848103835287818151815260200191508051906020019080838360005b8381101561049b578082015181840152602081019050610480565b50505050905090810190601f1680156104c85780820380516001836020036101000a031916815260200191505b50848103825286818151815260200191508051906020019080838360005b838110156105015780820151818401526020810190506104e6565b50505050905090810190601f16801561052e5780820380516001836020036101000a031916815260200191505b50995050505050505050505060405180910390f35b34801561054f57600080fd5b506105786004803603810190808035906020019092919080359060200190929190505050611ec1565b604051808273ffffffffffffffffffffffffffffffffffffffff1673ffffffffffffffffffffffffffffffffffffffff16815260200191505060405180910390f35b3480156105c657600080fd5b506105e560048036038101908080359060200190929190505050611f03565b604051808273ffffffffffffffffffffffffffffffffffffffff1673ffffffffffffffffffffffffffffffffffffffff16815260200191505060405180910390f35b61062f6122e4565b6101c06040519081016040528060005481526020018a815260200189815260200188815260200187815260200188815260200160008152602001868152602001858152602001848152602001838152602001600073ffffffffffffffffffffffffffffffffffffffff1681526020013373ffffffffffffffffffffffffffffffffffffffff168152602001600060028111156106c757fe5b8152509050806001600080548152602001908152602001600020600082015181600001556020820151816001015560408201518160020155606082015181600301556080820151816004015560a0820151816005015560c0820151816006015560e082015181600701908051906020019061074392919061238b565b5061010082015181600801908051906020019061076192919061238b565b5061012082015181600901908051906020019061077f92919061238b565b5061014082015181600a01908051906020019061079d92919061238b565b5061016082015181600b0160006101000a81548173ffffffffffffffffffffffffffffffffffffffff021916908373ffffffffffffffffffffffffffffffffffffffff16021790555061018082015181600c0160006101000a81548173ffffffffffffffffffffffffffffffffffffffff021916908373ffffffffffffffffffffffffffffffffffffffff1602179055506101a082015181600c0160146101000a81548160ff0219169083600281111561085357fe5b02179055509050506000808154809291906001019190505550505050505050505050565b60006108816122e4565b600160008481526020019081526020016000206101c0604051908101604052908160008201548152602001600182015481526020016002820154815260200160038201548152602001600482015481526020016005820154815260200160068201548152602001600782018054600181600116156101000203166002900480601f0160208091040260200160405190810160405280929190818152602001828054600181600116156101000203166002900480156109805780601f1061095557610100808354040283529160200191610980565b820191906000526020600020905b81548152906001019060200180831161096357829003601f168201915b50505050508152602001600882018054600181600116156101000203166002900480601f016020809104026020016040519081016040528092919081815260200182805460018160011615610100020316600290048015610a225780601f106109f757610100808354040283529160200191610a22565b820191906000526020600020905b815481529060010190602001808311610a0557829003601f168201915b50505050508152602001600982018054600181600116156101000203166002900480601f016020809104026020016040519081016040528092919081815260200182805460018160011615610100020316600290048015610ac45780601f10610a9957610100808354040283529160200191610ac4565b820191906000526020600020905b815481529060010190602001808311610aa757829003601f168201915b50505050508152602001600a82018054600181600116156101000203166002900480601f016020809104026020016040519081016040528092919081815260200182805460018160011615610100020316600290048015610b665780601f10610b3b57610100808354040283529160200191610b66565b820191906000526020600020905b815481529060010190602001808311610b4957829003601f168201915b50505050508152602001600b820160009054906101000a900473ffffffffffffffffffffffffffffffffffffffff1673ffffffffffffffffffffffffffffffffffffffff1673ffffffffffffffffffffffffffffffffffffffff168152602001600c820160009054906101000a900473ffffffffffffffffffffffffffffffffffffffff1673ffffffffffffffffffffffffffffffffffffffff1673ffffffffffffffffffffffffffffffffffffffff168152602001600c820160149054906101000a900460ff166002811115610c3957fe5b6002811115610c4457fe5b815250509050806101600151915050919050565b60008054905090565b60008060016000848152602001908152602001600020905080600201548160010154014211151515610cfb576040517f08c379a000000000000000000000000000000000000000000000000000000000815260040180806020018281038252600c8152602001807fe7ab9ee68b8de7bb93e69d9f000000000000000000000000000000000000000081525060200191505060405180910390fd5b60006002811115610d0857fe5b81600c0160149054906101000a900460ff166002811115610d2557fe5b141515610d9a576040517f08c379a00000000000000000000000000000000000000000000000000000000081526004018080602001828103825260128152602001807fe4b88de5ad98e59ca8e8afa5e59586e59381000000000000000000000000000081525060200191505060405180910390fd5b806004015434101515610e3b576040517f08c379a00000000000000000000000000000000000000000000000000000000081526004018080602001828103825260338152602001807fe7ab9ee68b8de4bbb7e5a4a7e4ba8ee68896e7ad89e4ba8ee4b880e58fa3e4bb81526020017fb7efbc8ce4bda0e698afe582bbe5ad90e590970000000000000000000000000081525060400191505060405180910390fd5b80600501543410151515610edd576040517f08c379a000000000000000000000000000000000000000000000000000000000815260040180806020018281038252602d8152602001807fe7ab9ee68b8de4bbb7e6a0bce4b88de5be97e4bd8ee4ba8ee5bd93e5898de7ab81526020017f9ee68b8de69c80e9ab98e4bbb70000000000000000000000000000000000000081525060400191505060405180910390fd5b3481600501819055503381600b0160006101000a81548173ffffffffffffffffffffffffffffffffffffffff021916908373ffffffffffffffffffffffffffffffffffffffff160217905550336002600085815260200190815260200160002060008360060154815260200190815260200160002060006101000a81548173ffffffffffffffffffffffffffffffffffffffff021916908373ffffffffffffffffffffffffffffffffffffffff160217905550806006016000815480929190600101919050555034600360003373ffffffffffffffffffffffffffffffffffffffff1673ffffffffffffffffffffffffffffffffffffffff1681526020019081526020016000206000858152602001908152602001600020819055506001915050919050565b6000806001600084815260200190815260200160002090508060020154816001015401421115151561109d576040517f08c379a000000000000000000000000000000000000000000000000000000000815260040180806020018281038252600f8152602001807fe7ab9ee68b8de5b7b2e7bb93e69d9f000000000000000000000000000000000081525060200191505060405180910390fd5b600060028111156110aa57fe5b81600c0160149054906101000a900460ff1660028111156110c757fe5b14151561113c576040517f08c379a00000000000000000000000000000000000000000000000000000000081526004018080602001828103825260128152602001807fe4b88de5ad98e59ca8e8afa5e59586e59381000000000000000000000000000081525060200191505060405180910390fd5b806004015481600501819055503381600b0160006101000a81548173ffffffffffffffffffffffffffffffffffffffff021916908373ffffffffffffffffffffffffffffffffffffffff160217905550336002600085815260200190815260200160002060008360060154815260200190815260200160002060006101000a81548173ffffffffffffffffffffffffffffffffffffffff021916908373ffffffffffffffffffffffffffffffffffffffff16021790555080600601600081548092919060010191905055508060040154600360003373ffffffffffffffffffffffffffffffffffffffff1673ffffffffffffffffffffffffffffffffffffffff16815260200190815260200160002060008581526020019081526020016000208190555061126983611298565b6001915050919050565b6003602052816000526040600020602052806000526040600020600091509150505481565b600080600080600160008681526020019081526020016000209350836002015484600101540142111580156112d4575083600401548460050154145b156115a057600090505b836006015481101561159b5783600401546003600060026000898152602001908152602001600020600085815260200190815260200160002060009054906101000a900473ffffffffffffffffffffffffffffffffffffffff1673ffffffffffffffffffffffffffffffffffffffff1673ffffffffffffffffffffffffffffffffffffffff1681526020019081526020016000206000878152602001908152602001600020541415156114715760026000868152602001908152602001600020600082815260200190815260200160002060009054906101000a900473ffffffffffffffffffffffffffffffffffffffff169250600360008473ffffffffffffffffffffffffffffffffffffffff1673ffffffffffffffffffffffffffffffffffffffff16815260200190815260200160002060008681526020019081526020016000205491508273ffffffffffffffffffffffffffffffffffffffff166108fc839081150290604051600060405180830381858888f1935050505015801561146b573d6000803e3d6000fd5b5061158e565b600184600c0160146101000a81548160ff0219169083600281111561149257fe5b021790555083600c0160009054906101000a900473ffffffffffffffffffffffffffffffffffffffff1673ffffffffffffffffffffffffffffffffffffffff166108fc85600401549081150290604051600060405180830381858888f19350505050158015611505573d6000803e3d6000fd5b5060026000868152602001908152602001600020600082815260200190815260200160002060009054906101000a900473ffffffffffffffffffffffffffffffffffffffff1684600c0160006101000a81548173ffffffffffffffffffffffffffffffffffffffff021916908373ffffffffffffffffffffffffffffffffffffffff1602179055505b80806001019150506112de565b611a9f565b8360020154846001015401421180156115e05750600060028111156115c157fe5b84600c0160149054906101000a900460ff1660028111156115de57fe5b145b8015611660575083600b0160009054906101000a900473ffffffffffffffffffffffffffffffffffffffff1673ffffffffffffffffffffffffffffffffffffffff1684600c0160009054906101000a900473ffffffffffffffffffffffffffffffffffffffff1673ffffffffffffffffffffffffffffffffffffffff1614155b1561192c57600090505b83600601548110156119275783600501546003600060026000898152602001908152602001600020600085815260200190815260200160002060009054906101000a900473ffffffffffffffffffffffffffffffffffffffff1673ffffffffffffffffffffffffffffffffffffffff1673ffffffffffffffffffffffffffffffffffffffff1681526020019081526020016000206000878152602001908152602001600020541415156117fd5760026000868152602001908152602001600020600082815260200190815260200160002060009054906101000a900473ffffffffffffffffffffffffffffffffffffffff169250600360008473ffffffffffffffffffffffffffffffffffffffff1673ffffffffffffffffffffffffffffffffffffffff16815260200190815260200160002060008681526020019081526020016000205491508273ffffffffffffffffffffffffffffffffffffffff166108fc839081150290604051600060405180830381858888f193505050501580156117f7573d6000803e3d6000fd5b5061191a565b600184600c0160146101000a81548160ff0219169083600281111561181e57fe5b021790555083600c0160009054906101000a900473ffffffffffffffffffffffffffffffffffffffff1673ffffffffffffffffffffffffffffffffffffffff166108fc85600501549081150290604051600060405180830381858888f19350505050158015611891573d6000803e3d6000fd5b5060026000868152602001908152602001600020600082815260200190815260200160002060009054906101000a900473ffffffffffffffffffffffffffffffffffffffff1684600c0160006101000a81548173ffffffffffffffffffffffffffffffffffffffff021916908373ffffffffffffffffffffffffffffffffffffffff1602179055505b808060010191505061166a565b611a9e565b83600201548460010154014211801561196c57506000600281111561194d57fe5b84600c0160149054906101000a900460ff16600281111561196a57fe5b145b80156119eb575083600c0160009054906101000a900473ffffffffffffffffffffffffffffffffffffffff1673ffffffffffffffffffffffffffffffffffffffff1684600b0160009054906101000a900473ffffffffffffffffffffffffffffffffffffffff1673ffffffffffffffffffffffffffffffffffffffff16145b15611a1b57600284600c0160146101000a81548160ff02191690836002811115611a1157fe5b0217905550611a9d565b836002015484600101540142111515611a9c576040517f08c379a00000000000000000000000000000000000000000000000000000000081526004018080602001828103825260158152602001807fe58f8de6ada3e5b0b1e698afe5a4b1e8b4a5e4ba86000000000000000000000081525060200191505060405180910390fd5b5b5b5b5050505050565b60008060608060606000611ab86122e4565b600160008981526020019081526020016000206101c0604051908101604052908160008201548152602001600182015481526020016002820154815260200160038201548152602001600482015481526020016005820154815260200160068201548152602001600782018054600181600116156101000203166002900480601f016020809104026020016040519081016040528092919081815260200182805460018160011615610100020316600290048015611bb75780601f10611b8c57610100808354040283529160200191611bb7565b820191906000526020600020905b815481529060010190602001808311611b9a57829003601f168201915b50505050508152602001600882018054600181600116156101000203166002900480601f016020809104026020016040519081016040528092919081815260200182805460018160011615610100020316600290048015611c595780601f10611c2e57610100808354040283529160200191611c59565b820191906000526020600020905b815481529060010190602001808311611c3c57829003601f168201915b50505050508152602001600982018054600181600116156101000203166002900480601f016020809104026020016040519081016040528092919081815260200182805460018160011615610100020316600290048015611cfb5780601f10611cd057610100808354040283529160200191611cfb565b820191906000526020600020905b815481529060010190602001808311611cde57829003601f168201915b50505050508152602001600a82018054600181600116156101000203166002900480601f016020809104026020016040519081016040528092919081815260200182805460018160011615610100020316600290048015611d9d5780601f10611d7257610100808354040283529160200191611d9d565b820191906000526020600020905b815481529060010190602001808311611d8057829003601f168201915b50505050508152602001600b820160009054906101000a900473ffffffffffffffffffffffffffffffffffffffff1673ffffffffffffffffffffffffffffffffffffffff1673ffffffffffffffffffffffffffffffffffffffff168152602001600c820160009054906101000a900473ffffffffffffffffffffffffffffffffffffffff1673ffffffffffffffffffffffffffffffffffffffff1673ffffffffffffffffffffffffffffffffffffffff168152602001600c820160149054906101000a900460ff166002811115611e7057fe5b6002811115611e7b57fe5b8152505090508060a0015181608001518260e00151836101000151846101400151856101a001518393508292508191509650965096509650965096505091939550919395565b60026020528160005260406000206020528060005260406000206000915091509054906101000a900473ffffffffffffffffffffffffffffffffffffffff1681565b6000611f0d6122e4565b600160008481526020019081526020016000206101c0604051908101604052908160008201548152602001600182015481526020016002820154815260200160038201548152602001600482015481526020016005820154815260200160068201548152602001600782018054600181600116156101000203166002900480601f01602080910402602001604051908101604052809291908181526020018280546001816001161561010002031660029004801561200c5780601f10611fe15761010080835404028352916020019161200c565b820191906000526020600020905b815481529060010190602001808311611fef57829003601f168201915b50505050508152602001600882018054600181600116156101000203166002900480601f0160208091040260200160405190810160405280929190818152602001828054600181600116156101000203166002900480156120ae5780601f10612083576101008083540402835291602001916120ae565b820191906000526020600020905b81548152906001019060200180831161209157829003601f168201915b50505050508152602001600982018054600181600116156101000203166002900480601f0160208091040260200160405190810160405280929190818152602001828054600181600116156101000203166002900480156121505780601f1061212557610100808354040283529160200191612150565b820191906000526020600020905b81548152906001019060200180831161213357829003601f168201915b50505050508152602001600a82018054600181600116156101000203166002900480601f0160208091040260200160405190810160405280929190818152602001828054600181600116156101000203166002900480156121f25780601f106121c7576101008083540402835291602001916121f2565b820191906000526020600020905b8154815290600101906020018083116121d557829003601f168201915b50505050508152602001600b820160009054906101000a900473ffffffffffffffffffffffffffffffffffffffff1673ffffffffffffffffffffffffffffffffffffffff1673ffffffffffffffffffffffffffffffffffffffff168152602001600c820160009054906101000a900473ffffffffffffffffffffffffffffffffffffffff1673ffffffffffffffffffffffffffffffffffffffff1673ffffffffffffffffffffffffffffffffffffffff168152602001600c820160149054906101000a900460ff1660028111156122c557fe5b60028111156122d057fe5b815250509050806101800151915050919050565b6101c0604051908101604052806000815260200160008152602001600081526020016000815260200160008152602001600081526020016000815260200160608152602001606081526020016060815260200160608152602001600073ffffffffffffffffffffffffffffffffffffffff168152602001600073ffffffffffffffffffffffffffffffffffffffff1681526020016000600281111561238557fe5b81525090565b828054600181600116156101000203166002900490600052602060002090601f016020900481019282601f106123cc57805160ff19168380011785556123fa565b828001600101855582156123fa579182015b828111156123f95782518255916020019190600101906123de565b5b509050612407919061240b565b5090565b61242d91905b80821115612429576000816000905550600101612411565b5090565b905600a165627a7a723058201e4b827237012e475683895c965ac76815264320282d9b527e54cba927e133f10029",
  "source": "pragma solidity ^0.4.23;\n\nimport \"./Migrations.sol\";\n\ncontract Auction{\n    struct Product{\n        uint ID; // product id\n        uint startTime; // the time that product start to be sold\n        uint auctionTime; // the length of the auction time\n        uint startingPrice; // \n        uint fixedPrice; // \n        uint topPrice; // \n        uint bidNumber; // \n        string name; // product name\n        string classification; // product class\n        string imageHash; // product image hash value\n        string description; // product description\n        address buyer; // \n        address belongTo; // \n        Status status; // product status\n    }\n\n    enum Status{\n        AVAILABLE, // \n        SOLD, // \n        UNSOLD // \n    }\n    uint productCount;\n    mapping(uint => Product) store; // id\n    mapping(uint => mapping(uint => address)) public bidders; // id\n    mapping(address => mapping(uint => uint)) public biddersPrice; // \n    \n    constructor() public{\n        productCount = 0;\n    }\n\n    function addProduct(uint _startTime, uint _auctionTime, uint _startingPrice, uint _fixedPrice, string memory _name, string memory _classification, string memory _imageHash, string memory _description) public{\n        Product memory product = Product(productCount, _startTime, _auctionTime, _startingPrice, _fixedPrice, _startingPrice, 0, _name, _classification, _imageHash, _description, 0, msg.sender, Status.AVAILABLE);\n        store[productCount] = product;\n        productCount++;\n    }\n\n    function bidProduct(uint _productID)public payable returns(bool){\n        Product storage product = store[_productID];\n        require(block.timestamp <= product.startTime + product.auctionTime, \"\");\n        require(product.status == Status.AVAILABLE, \"\");\n        require(msg.value < product.fixedPrice, \"\");\n        require(msg.value >= product.topPrice, \"\");\n        product.topPrice = msg.value;\n        product.buyer = msg.sender;\n        bidders[_productID][product.bidNumber] = msg.sender;\n        product.bidNumber++;\n        biddersPrice[msg.sender][_productID] = msg.value;\n        return true;\n    }\n\n    function fixedBuyProduct(uint _productID)public payable returns(bool) {\n        Product storage product = store[_productID];\n        require(block.timestamp <= product.startTime + product.auctionTime, \"\");\n        require(product.status == Status.AVAILABLE, \"\");\n        product.topPrice = product.fixedPrice;\n        product.buyer = msg.sender;\n        bidders[_productID][product.bidNumber] = msg.sender;\n        product.bidNumber++;\n        biddersPrice[msg.sender][_productID] = product.fixedPrice;\n        endAuction(_productID);\n        return true;\n    }\n\n    function endAuction(uint _productID) public{\n        Product storage product = store[_productID];\n        address temp;\n        uint price;\n        uint i;\n        if((block.timestamp <= product.startTime + product.auctionTime) && product.topPrice == product.fixedPrice){ // \n            for(i=0;i<product.bidNumber;i++){\n                if(biddersPrice[bidders[_productID][i]][_productID] != product.fixedPrice){\n                    temp = bidders[_productID][i];\n                    price = biddersPrice[temp][_productID];\n                    temp.transfer(price);\n                }\n                else{\n                    product.status = Status.SOLD;\n                    product.belongTo.transfer(product.fixedPrice);\n                    product.belongTo = bidders[_productID][i];\n                }\n            }\n        }\n        else if((block.timestamp > product.startTime + product.auctionTime) && product.status == Status.AVAILABLE && product.belongTo != product.buyer){\n            for(i=0;i<product.bidNumber;i++){\n                if(biddersPrice[bidders[_productID][i]][_productID] != product.topPrice){\n                    temp = bidders[_productID][i];\n                    price = biddersPrice[temp][_productID];\n                    temp.transfer(price);\n                }\n                else{\n                    product.status = Status.SOLD;\n                    product.belongTo.transfer(product.topPrice);\n                    product.belongTo = bidders[_productID][i];\n                }\n            }\n        }\n        else if((block.timestamp > product.startTime + product.auctionTime) && product.status == Status.AVAILABLE && product.buyer == product.belongTo){\n            product.status = Status.UNSOLD;\n        }\n        else{\n            require((block.timestamp > product.startTime + product.auctionTime),\"\");\n        }\n    }\n// \nfunction getProduct(uint _productID) public view returns(uint, uint, string, string, string, Status){\n    Product memory product = store[_productID];\n    return (product.topPrice, product.fixedPrice, product.name, product.classification, product.description, product.status);\n}\nfunction getBuyer(uint _productID) public view returns(address) {\n    Product memory product = store[_productID];\n    return product.buyer;\n}\nfunction belongToWho(uint _productID) public view returns(address) {\n    Product memory product = store[_productID];\n    return product.belongTo;\n}\nfunction getProductNum() public view returns(uint) {\n    return productCount;\n}\n}",
  "sourcePath": "/Users/xiong/Desktop/ethereum2/contracts/Auction.sol",
  "compiler": {
    "name": "solc",
    "version": "0.4.24+commit.e67f0147.Emscripten.clang"
  },
  "schemaVersion": "2.0.1",
  "updatedAt": "2018-12-31T15:03:53.570Z"
}